{"project/contracts/RageQuitCounter.sol":{"RageQuitCounter":{"abi":[{"anonymous":false,"inputs":[{"indexed":true,"internalType":"address","name":"user","type":"address"},{"indexed":false,"internalType":"uint256","name":"count","type":"uint256"},{"indexed":false,"internalType":"uint256","name":"newTotal","type":"uint256"},{"indexed":false,"internalType":"uint256","name":"timestamp","type":"uint256"}],"name":"BatchRageQuitRecorded","type":"event"},{"anonymous":false,"inputs":[{"indexed":true,"internalType":"address","name":"user","type":"address"},{"indexed":false,"internalType":"uint256","name":"newCount","type":"uint256"},{"indexed":false,"internalType":"uint256","name":"timestamp","type":"uint256"}],"name":"RageQuitRecorded","type":"event"},{"inputs":[],"name":"getMyRageQuitCount","outputs":[{"internalType":"uint256","name":"","type":"uint256"}],"stateMutability":"view","type":"function"},{"inputs":[{"internalType":"address","name":"user","type":"address"}],"name":"getRageQuitCount","outputs":[{"internalType":"uint256","name":"","type":"uint256"}],"stateMutability":"view","type":"function"},{"inputs":[],"name":"getTotalRageQuits","outputs":[{"internalType":"uint256","name":"","type":"uint256"}],"stateMutability":"view","type":"function"},{"inputs":[{"internalType":"address","name":"","type":"address"}],"name":"rageQuitCount","outputs":[{"internalType":"uint256","name":"","type":"uint256"}],"stateMutability":"view","type":"function"},{"inputs":[{"internalType":"uint256","name":"count","type":"uint256"}],"name":"recordBatchRageQuit","outputs":[],"stateMutability":"nonpayable","type":"function"},{"inputs":[],"name":"recordRageQuit","outputs":[],"stateMutability":"nonpayable","type":"function"},{"inputs":[],"name":"totalRageQuits","outputs":[{"internalType":"uint256","name":"","type":"uint256"}],"stateMutability":"view","type":"function"}],"evm":{"bytecode":{"linkReferences":{},"object":"6080604052348015600e575f5ffd5b506103328061001c5f395ff3fe608060405234801561000f575f5ffd5b506004361061007a575f3560e01c8063380cb45411610058578063380cb454146100c05780633a0bdf23146100e85780634e06070d146100fc578063a2fbbf4714610111575f5ffd5b8063095b36a51461007e5780632076e1d0146100995780632773ac67146100b8575b5f5ffd5b61008760015481565b60405190815260200160405180910390f35b6100876100a7366004610273565b5f6020819052908152604090205481565b600154610087565b6100876100ce366004610273565b6001600160a01b03165f9081526020819052604090205490565b335f90815260208190526040902054610087565b61010f61010a3660046102a0565b610119565b005b61010f6101f5565b5f811161016c5760405162461bcd60e51b815260206004820152601c60248201527f436f756e74206d7573742062652067726561746572207468616e203000000000604482015260640160405180910390fd5b335f908152602081905260408120805483929061018a9084906102cb565b925050819055508060015f8282546101a291906102cb565b9091555050335f818152602081815260409182902054825185815291820152428183015290517fcf00b4ec236ae2fbcfc48249f31e0053cfe93d16fbb68ee4562695c3769dbe699181900360600190a250565b335f90815260208190526040812080549161020f836102e4565b909155505060018054905f610223836102e4565b9091555050335f818152602081815260409182902054825190815242918101919091527f8040f1c87a8e36bea968f0a868c13335d54a4f545214a2781253da6ea88131da910160405180910390a2565b5f60208284031215610283575f5ffd5b81356001600160a01b0381168114610299575f5ffd5b9392505050565b5f602082840312156102b0575f5ffd5b5035919050565b634e487b7160e01b5f52601160045260245ffd5b808201808211156102de576102de6102b7565b92915050565b5f600182016102f5576102f56102b7565b506001019056fea2646970667358221220320f04cbdb082daaa6a790cf6d60c2cd51fdd1753dfbbd78ead890eef21a400c64736f6c634300081c0033","opcodes":"PUSH1 0x80 PUSH1 0x40 MSTORE CALLVALUE DUP1 ISZERO PUSH1 0xE JUMPI PUSH0 PUSH0 REVERT JUMPDEST POP PUSH2 0x332 DUP1 PUSH2 0x1C PUSH0 CODECOPY PUSH0 RETURN INVALID PUSH1 0x80 PUSH1 0x40 MSTORE CALLVALUE DUP1 ISZERO PUSH2 0xF JUMPI PUSH0 PUSH0 REVERT JUMPDEST POP PUSH1 0x4 CALLDATASIZE LT PUSH2 0x7A JUMPI PUSH0 CALLDATALOAD PUSH1 0xE0 SHR DUP1 PUSH4 0x380CB454 GT PUSH2 0x58 JUMPI DUP1 PUSH4 0x380CB454 EQ PUSH2 0xC0 JUMPI DUP1 PUSH4 0x3A0BDF23 EQ PUSH2 0xE8 JUMPI DUP1 PUSH4 0x4E06070D EQ PUSH2 0xFC JUMPI DUP1 PUSH4 0xA2FBBF47 EQ PUSH2 0x111 JUMPI PUSH0 PUSH0 REVERT JUMPDEST DUP1 PUSH4 0x95B36A5 EQ PUSH2 0x7E JUMPI DUP1 PUSH4 0x2076E1D0 EQ PUSH2 0x99 JUMPI DUP1 PUSH4 0x2773AC67 EQ PUSH2 0xB8 JUMPI JUMPDEST PUSH0 PUSH0 REVERT JUMPDEST PUSH2 0x87 PUSH1 0x1 SLOAD DUP2 JUMP JUMPDEST PUSH1 0x40 MLOAD SWAP1 DUP2 MSTORE PUSH1 0x20 ADD PUSH1 0x40 MLOAD DUP1 SWAP2 SUB SWAP1 RETURN JUMPDEST PUSH2 0x87 PUSH2 0xA7 CALLDATASIZE PUSH1 0x4 PUSH2 0x273 JUMP JUMPDEST PUSH0 PUSH1 0x20 DUP2 SWAP1 MSTORE SWAP1 DUP2 MSTORE PUSH1 0x40 SWAP1 KECCAK256 SLOAD DUP2 JUMP JUMPDEST PUSH1 0x1 SLOAD PUSH2 0x87 JUMP JUMPDEST PUSH2 0x87 PUSH2 0xCE CALLDATASIZE PUSH1 0x4 PUSH2 0x273 JUMP JUMPDEST PUSH1 0x1 PUSH1 0x1 PUSH1 0xA0 SHL SUB AND PUSH0 SWAP1 DUP2 MSTORE PUSH1 0x20 DUP2 SWAP1 MSTORE PUSH1 0x40 SWAP1 KECCAK256 SLOAD SWAP1 JUMP JUMPDEST CALLER PUSH0 SWAP1 DUP2 MSTORE PUSH1 0x20 DUP2 SWAP1 MSTORE PUSH1 0x40 SWAP1 KECCAK256 SLOAD PUSH2 0x87 JUMP JUMPDEST PUSH2 0x10F PUSH2 0x10A CALLDATASIZE PUSH1 0x4 PUSH2 0x2A0 JUMP JUMPDEST PUSH2 0x119 JUMP JUMPDEST STOP JUMPDEST PUSH2 0x10F PUSH2 0x1F5 JUMP JUMPDEST PUSH0 DUP2 GT PUSH2 0x16C JUMPI PUSH1 0x40 MLOAD PUSH3 0x461BCD PUSH1 0xE5 SHL DUP2 MSTORE PUSH1 0x20 PUSH1 0x4 DUP3 ADD MSTORE PUSH1 0x1C PUSH1 0x24 DUP3 ADD MSTORE PUSH32 0x436F756E74206D7573742062652067726561746572207468616E203000000000 PUSH1 0x44 DUP3 ADD MSTORE PUSH1 0x64 ADD PUSH1 0x40 MLOAD DUP1 SWAP2 SUB SWAP1 REVERT JUMPDEST CALLER PUSH0 SWAP1 DUP2 MSTORE PUSH1 0x20 DUP2 SWAP1 MSTORE PUSH1 0x40 DUP2 KECCAK256 DUP1 SLOAD DUP4 SWAP3 SWAP1 PUSH2 0x18A SWAP1 DUP5 SWAP1 PUSH2 0x2CB JUMP JUMPDEST SWAP3 POP POP DUP2 SWAP1 SSTORE POP DUP1 PUSH1 0x1 PUSH0 DUP3 DUP3 SLOAD PUSH2 0x1A2 SWAP2 SWAP1 PUSH2 0x2CB JUMP JUMPDEST SWAP1 SWAP2 SSTORE POP POP CALLER PUSH0 DUP2 DUP2 MSTORE PUSH1 0x20 DUP2 DUP2 MSTORE PUSH1 0x40 SWAP2 DUP3 SWAP1 KECCAK256 SLOAD DUP3 MLOAD DUP6 DUP2 MSTORE SWAP2 DUP3 ADD MSTORE TIMESTAMP DUP2 DUP4 ADD MSTORE SWAP1 MLOAD PUSH32 0xCF00B4EC236AE2FBCFC48249F31E0053CFE93D16FBB68EE4562695C3769DBE69 SWAP2 DUP2 SWAP1 SUB PUSH1 0x60 ADD SWAP1 LOG2 POP JUMP JUMPDEST CALLER PUSH0 SWAP1 DUP2 MSTORE PUSH1 0x20 DUP2 SWAP1 MSTORE PUSH1 0x40 DUP2 KECCAK256 DUP1 SLOAD SWAP2 PUSH2 0x20F DUP4 PUSH2 0x2E4 JUMP JUMPDEST SWAP1 SWAP2 SSTORE POP POP PUSH1 0x1 DUP1 SLOAD SWAP1 PUSH0 PUSH2 0x223 DUP4 PUSH2 0x2E4 JUMP JUMPDEST SWAP1 SWAP2 SSTORE POP POP CALLER PUSH0 DUP2 DUP2 MSTORE PUSH1 0x20 DUP2 DUP2 MSTORE PUSH1 0x40 SWAP2 DUP3 SWAP1 KECCAK256 SLOAD DUP3 MLOAD SWAP1 DUP2 MSTORE TIMESTAMP SWAP2 DUP2 ADD SWAP2 SWAP1 SWAP2 MSTORE PUSH32 0x8040F1C87A8E36BEA968F0A868C13335D54A4F545214A2781253DA6EA88131DA SWAP2 ADD PUSH1 0x40 MLOAD DUP1 SWAP2 SUB SWAP1 LOG2 JUMP JUMPDEST PUSH0 PUSH1 0x20 DUP3 DUP5 SUB SLT ISZERO PUSH2 0x283 JUMPI PUSH0 PUSH0 REVERT JUMPDEST DUP2 CALLDATALOAD PUSH1 0x1 PUSH1 0x1 PUSH1 0xA0 SHL SUB DUP2 AND DUP2 EQ PUSH2 0x299 JUMPI PUSH0 PUSH0 REVERT JUMPDEST SWAP4 SWAP3 POP POP POP JUMP JUMPDEST PUSH0 PUSH1 0x20 DUP3 DUP5 SUB SLT ISZERO PUSH2 0x2B0 JUMPI PUSH0 PUSH0 REVERT JUMPDEST POP CALLDATALOAD SWAP2 SWAP1 POP JUMP JUMPDEST PUSH4 0x4E487B71 PUSH1 0xE0 SHL PUSH0 MSTORE PUSH1 0x11 PUSH1 0x4 MSTORE PUSH1 0x24 PUSH0 REVERT JUMPDEST DUP1 DUP3 ADD DUP1 DUP3 GT ISZERO PUSH2 0x2DE JUMPI PUSH2 0x2DE PUSH2 0x2B7 JUMP JUMPDEST SWAP3 SWAP2 POP POP JUMP JUMPDEST PUSH0 PUSH1 0x1 DUP3 ADD PUSH2 0x2F5 JUMPI PUSH2 0x2F5 PUSH2 0x2B7 JUMP JUMPDEST POP PUSH1 0x1 ADD SWAP1 JUMP INVALID LOG2 PUSH5 0x6970667358 0x22 SLT KECCAK256 ORIGIN 0xF DIV 0xCB 0xDB ADDMOD 0x2D 0xAA 0xA6 0xA7 SWAP1 0xCF PUSH14 0x60C2CD51FDD1753DFBBD78EAD890 0xEE CALLCODE BYTE BLOCKHASH 0xC PUSH5 0x736F6C6343 STOP ADDMOD SHR STOP CALLER "},"methodIdentifiers":{"getMyRageQuitCount()":"3a0bdf23","getRageQuitCount(address)":"380cb454","getTotalRageQuits()":"2773ac67","rageQuitCount(address)":"2076e1d0","recordBatchRageQuit(uint256)":"4e06070d","recordRageQuit()":"a2fbbf47","totalRageQuits()":"095b36a5"}}}}}