{
  "_format": "hh3-artifact-1",
  "contractName": "RageQuitCounter",
  "sourceName": "contracts/RageQuitCounter.sol",
  "abi": [
    {
      "anonymous": false,
      "inputs": [
        {
          "indexed": true,
          "internalType": "address",
          "name": "user",
          "type": "address"
        },
        {
          "indexed": false,
          "internalType": "uint256",
          "name": "count",
          "type": "uint256"
        },
        {
          "indexed": false,
          "internalType": "uint256",
          "name": "newTotal",
          "type": "uint256"
        },
        {
          "indexed": false,
          "internalType": "uint256",
          "name": "timestamp",
          "type": "uint256"
        }
      ],
      "name": "BatchRageQuitRecorded",
      "type": "event"
    },
    {
      "anonymous": false,
      "inputs": [
        {
          "indexed": true,
          "internalType": "address",
          "name": "user",
          "type": "address"
        },
        {
          "indexed": false,
          "internalType": "uint256",
          "name": "newCount",
          "type": "uint256"
        },
        {
          "indexed": false,
          "internalType": "uint256",
          "name": "timestamp",
          "type": "uint256"
        }
      ],
      "name": "RageQuitRecorded",
      "type": "event"
    },
    {
      "inputs": [],
      "name": "getMyRageQuitCount",
      "outputs": [
        {
          "internalType": "uint256",
          "name": "",
          "type": "uint256"
        }
      ],
      "stateMutability": "view",
      "type": "function"
    },
    {
      "inputs": [
        {
          "internalType": "address",
          "name": "user",
          "type": "address"
        }
      ],
      "name": "getRageQuitCount",
      "outputs": [
        {
          "internalType": "uint256",
          "name": "",
          "type": "uint256"
        }
      ],
      "stateMutability": "view",
      "type": "function"
    },
    {
      "inputs": [],
      "name": "getTotalRageQuits",
      "outputs": [
        {
          "internalType": "uint256",
          "name": "",
          "type": "uint256"
        }
      ],
      "stateMutability": "view",
      "type": "function"
    },
    {
      "inputs": [
        {
          "internalType": "address",
          "name": "",
          "type": "address"
        }
      ],
      "name": "rageQuitCount",
      "outputs": [
        {
          "internalType": "uint256",
          "name": "",
          "type": "uint256"
        }
      ],
      "stateMutability": "view",
      "type": "function"
    },
    {
      "inputs": [
        {
          "internalType": "uint256",
          "name": "count",
          "type": "uint256"
        }
      ],
      "name": "recordBatchRageQuit",
      "outputs": [],
      "stateMutability": "nonpayable",
      "type": "function"
    },
    {
      "inputs": [],
      "name": "recordRageQuit",
      "outputs": [],
      "stateMutability": "nonpayable",
      "type": "function"
    },
    {
      "inputs": [],
      "name": "totalRageQuits",
      "outputs": [
        {
          "internalType": "uint256",
          "name": "",
          "type": "uint256"
        }
      ],
      "stateMutability": "view",
      "type": "function"
    }
  ],
  "bytecode": "0x6080604052348015600e575f5ffd5b506103328061001c5f395ff3fe608060405234801561000f575f5ffd5b506004361061007a575f3560e01c8063380cb45411610058578063380cb454146100c05780633a0bdf23146100e85780634e06070d146100fc578063a2fbbf4714610111575f5ffd5b8063095b36a51461007e5780632076e1d0146100995780632773ac67146100b8575b5f5ffd5b61008760015481565b60405190815260200160405180910390f35b6100876100a7366004610273565b5f6020819052908152604090205481565b600154610087565b6100876100ce366004610273565b6001600160a01b03165f9081526020819052604090205490565b335f90815260208190526040902054610087565b61010f61010a3660046102a0565b610119565b005b61010f6101f5565b5f811161016c5760405162461bcd60e51b815260206004820152601c60248201527f436f756e74206d7573742062652067726561746572207468616e203000000000604482015260640160405180910390fd5b335f908152602081905260408120805483929061018a9084906102cb565b925050819055508060015f8282546101a291906102cb565b9091555050335f818152602081815260409182902054825185815291820152428183015290517fcf00b4ec236ae2fbcfc48249f31e0053cfe93d16fbb68ee4562695c3769dbe699181900360600190a250565b335f90815260208190526040812080549161020f836102e4565b909155505060018054905f610223836102e4565b9091555050335f818152602081815260409182902054825190815242918101919091527f8040f1c87a8e36bea968f0a868c13335d54a4f545214a2781253da6ea88131da910160405180910390a2565b5f60208284031215610283575f5ffd5b81356001600160a01b0381168114610299575f5ffd5b9392505050565b5f602082840312156102b0575f5ffd5b5035919050565b634e487b7160e01b5f52601160045260245ffd5b808201808211156102de576102de6102b7565b92915050565b5f600182016102f5576102f56102b7565b506001019056fea2646970667358221220320f04cbdb082daaa6a790cf6d60c2cd51fdd1753dfbbd78ead890eef21a400c64736f6c634300081c0033",
  "linkReferences": {},
  "deployedLinkReferences": {},
  "immutableReferences": {},
  "inputSourceName": "project/contracts/RageQuitCounter.sol",
  "buildInfoId": "solc-0_8_28-840c2388c43f0e2162b7d3f8196d75f9e6febe42"
}